:100000000C9403010C942D010C942D010C942D01E2
:100010000C942D010C942D010C942D010C942D01A8
:100020000C942D010C942D010C942D010C942D0198
:100030000C942D010C942D010C942D010C942D0188
:100040000C942D010C942D010C942D010C942D0178
:100050000C942D010C942D010C942D010C94290667
:100060000C942D010C942D010C942D010C942D0158
:100070000C942D010C942D010C942D010C942D0148
:100080000C942D010C942D010C942D010C942D0138
:100090000C942D010C942D010C942D010C942D0128
:1000A0000C942D010C942D010C942D010C942D0118
:1000B0000C942D010C942D010C942D010C942D0108
:1000C0000C942D010C942D010C942D010C942D01F8
:1000D0000C942D010C942D010C942D010C942D01E8
:1000E0000C942D0100002100240027002A002D007F
:1000F0003000330001010000040107010A01000083
:100100002200250028002B002E00310034000201BF
:100110000000050108010B0100002000230026005B
:1001200029002C002F00320000010000030106010D
:10013000090105050505070508080808020202026D
:100140000A0A080804040404010101010101010173
:100150000303030303030303040707070C0C0C0C3E
:100160000C0C0C0C02020202060606060606060627
:100170000B0B0B0B0B0B0B0B0102102020080810B4
:100180002040102040800201020108040201010207
:1001900004081020408080402010080402018004E0
:1001A000020180402010080402010804020101023B
:1001B0000408102040800102040810204080000044
:1001C0000A0B02090C0D0E080703040100000000D1
:1001D000000000000000000000000000000000001F
:1001E00000000000000000000000121110000000DC
:1001F00000000000000000000000000000000000FF
:1002000000000000800811241FBECFEFD1E2DEBF46
:10021000CDBF12E0A0E0B2E0E6E6F2E100E00BBF05
:1002200002C007900D92AC36B107D9F722E0ACE6D8
:10023000B2E001C01D92A339B207E1F711E0C3E0BB
:10024000D1E004C02197FE010E940D09C230D10700
:10025000C9F70E94B8060C9431090C940000AF92C3
:10026000BF92CF92DF92EF92FF920F931F93CF93A3
:10027000DF936C017B018B01040F151FEB015E0105
:10028000AE18BF08C017D10759F06991D601ED919A
:10029000FC910190F081E02DC6010995892B79F739
:1002A000C501DF91CF911F910F91FF90EF90DF90EB
:1002B000CF90BF90AF9008958150823108F058C020
:1002C000E82FF0E0EA59FE4F0C940D0986018A01EF
:1002D00078017E018201B8018D01930197019D0192
:1002E000A101A501AB01AF01B801B301B901BD0185
:1002F000809180008F7780938000089580918000A6
:100300008F7DF9CF80918000877FF5CF84B58F777F
:1003100084BD089584B58F7DFBCF8091B0008F7729
:100320008093B00008958091B0008F7DF9CF8091C7
:1003300090008F77809390000895809190008F7D3A
:10034000F9CF80919000877FF5CF8091A0008F77C3
:100350008093A00008958091A0008F7DF9CF8091B7
:10036000A000877FF5CF809120018F7780932001B7
:100370000895809120018F7DF9CF80912001877FA2
:10038000F5CFCF93DF93282F30E0F901E254FE4FF1
:100390008491F901E858FE4FD491F901EE5CFE4FCB
:1003A000C491CC23A1F081110E945C01EC2FF0E0FC
:1003B000EE0FFF1FE85EFE4FA591B491EC91ED2387
:1003C00081E090E009F480E0DF91CF91089580E032
:1003D00090E0FACF1F93CF93DF93282F30E0F901FD
:1003E000E254FE4F8491F901E858FE4FD491F9018F
:1003F000EE5CFE4FC491CC23A9F0162F81110E9410
:100400005C01EC2FF0E0EE0FFF1FE250FF4FA591D3
:10041000B4918FB7F894EC91111108C0D095DE23F8
:10042000DC938FBFDF91CF911F910895DE2BF8CF22
:10043000CF93DF9390E0FC01E858FE4F24918E5C4F
:100440009E4FFC0184918823D1F090E0880F991F82
:10045000FC01EC51FF4FA591B491FC01E250FF4F1C
:10046000C591D49161110EC09FB7F8948C91E22F81
:10047000E0958E238C932881E223E8839FBFDF9150
:10048000CF9108958FB7F894EC91E22BEC938FBF46
:10049000F6CF1F93CF93DF93182FEB0161E00E94FB
:1004A0001802209739F460E0812FDF91CF911F91DE
:1004B0000C94EA01CF3FD10511F461E0F5CFE12FB3
:1004C000F0E0E254FE4FE491E150E23108F0B1C0B7
:1004D000F0E0E359FD4F0C940D097F0287028C0276
:1004E0009602A0021903AA02B202BA02C402CE0204
:1004F000D802E702F1021903FB0205030F0384B5DA
:10050000806884BDC7BDDF91CF911F91089584B5E8
:10051000806284BDC8BDF7CF8091800080688093E1
:100520008000D0938900C0938800EDCF8091800037
:10053000806280938000D0938B00C0938A00E3CFC9
:1005400080918000886080938000D0938D00C0935C
:100550008C00D9CF8091B00080688093B000C093A8
:10056000B300D1CF8091B00080628093B000C0937F
:10057000B400C9CF80919000806880939000D093A0
:100580009900C0939800BFCF8091900080628093C3
:100590009000D0939B00C0939A00B5CF80919000BB
:1005A000886080939000D0939D00C0939C00ABCF57
:1005B0008091A00080688093A0008091A0008F7B34
:1005C0008093A000D093A900C093A8009CCF8091F5
:1005D000A00080628093A000D093AB00C093AA00DB
:1005E00092CF8091A00088608093A000D093AD004E
:1005F000C093AC0088CF8091200180688093200157
:10060000D0932901C09328017ECF80912001806280
:1006100080932001D0932B01C0932A0174CF809145
:100620002001886080932001D0932D01C0932C017C
:100630006ACFC038D1050CF040CF35CF3FB7F89422
:100640008091750290917602A0917702B091780224
:1006500026B5A89B05C02F3F19F00196A11DB11D1D
:100660003FBFBA2FA92F982F8827BC01CD01620F59
:10067000711D811D911D42E0660F771F881F991F14
:100680004A95D1F70895089590E080E0089570E0CC
:1006900060E08DE00E94490270E060E08CE00E9422
:1006A000490270E060E08BE00E94490270E060E087
:1006B0008AE00C9449028F929F92AF92BF920F935F
:1006C0001F93CF93DF93CDB7DEB7A1970FB6F89402
:1006D000DEBF0FBECDBF19A2423008F44AE08E0142
:1006E0000F5D1F4F842E912CB12CA12CA5019401DC
:1006F0000E94C808E62FB901CA01EA3044F5E05D5E
:10070000D801EE938D01232B242B252B79F790E034
:1007100080E0109769F0FD0101900020E9F7319722
:10072000AF014A1B5B0BBD018BE792E00E942F01DA
:10073000A1960FB6F894DEBF0FBECDBFDF91CF916B
:100740001F910F91BF90AF909F908F900895E95C9B
:10075000D7CFFC0101900020E9F73197AF01481B8A
:10076000590BBC018BE792E00C942F01CF93DF93E0
:10077000EC0160E08E810E94EA0161E08E810E94BE
:10078000EA0160E08E810E94EA018BE891E0019726
:10079000F1F7DF91CF910895CF92DF92EF92FF9220
:1007A0000F931F93CF93DF936C017C0187E0E80EDA
:1007B000F11CD0E0C0E0062F10E0B8010C2E02C002
:1007C000759567950A94E2F76170F70181917F0151
:1007D0000E94EA012196C430D10579F7C601DF9164
:1007E000CF911F910F91FF90EF90DF90CF900C94DD
:1007F000B603CF92DF92EF92FF920F931F93CF93A6
:10080000DF93EC01F62E642F8C810E94EA018D812A
:100810008F3F19F060E00E94EA010F2D10E08F85F4
:1008200084FF25C06E0187E0C80ED11CF12CE12C9D
:10083000B8010E2C02C0759567950A94E2F76170B5
:10084000F60181916F010E94EA01FFEFEF1AFF0AA2
:1008500088E0E816F10461F7CE01DF91CF911F9196
:100860000F91FF90EF90DF90CF900C94B603B801FA
:1008700084E0759567958A95E1F7CE010E94CC03D7
:100880006F2DCE01DF91CF911F910F91FF90EF90CF
:10089000DF90CF900C94CC0340E0682F8BE792E080
:1008A0000C94F90381E00E944C048BE39FE10197D3
:1008B000F1F70895CF93DF93823029F490918A0263
:1008C000986090938A0280938E0210928F0280E447
:1008D0008093900280E18093910280E58093920260
:1008E00061E080917F020E941802809180028F3F18
:1008F00019F061E00E94180261E0809181020E947B
:100900001802CBE7D2E09E012B57324080918A0239
:1009100084FD0BC084E090E021962817390744F449
:1009200061E08E810E941802EECF88E090E0F4CF63
:100930008BE39DE00197F1F760E080917F020E94D8
:10094000EA0160E0809181020E94EA0180918002C8
:100950008F3F19F060E00E94EA0180918A0284FDD5
:1009600034C063E08BE792E00E94CC03CBE4D6E492
:10097000CE010197F1F763E08BE792E00E94CC0390
:100980002197F1F763E08BE792E00E94CC0383E5C7
:1009900092E00197F1F762E08BE792E00E94CC03CE
:1009A00080918A0280620E944C0484E080938B02D2
:1009B0008CE00E944C040E94520482E080938C02DE
:1009C00086E0DF91CF910C944C0480620E944C042D
:1009D0008BE496E40197F1F780918A0280620E948D
:1009E0004C0483E592E00197F1F780918A028062DE
:1009F0000E944C04D5CF90918E02691710F06FEFD2
:100A0000690FE62FF0E0E558FD4F9489890F806863
:100A10000C944C0441E00E94F90381E090E00895B9
:100A2000CF92DF92EF92FF926C01990FEE08FF08D0
:100A3000F7FE16C041E06DE28BE792E00E94F903F9
:100A400066277727CB016C197D098E099F094AE03B
:100A50000E945B030196FF90EF90DF90CF90089586
:100A60004AE0C701B601FF90EF90DF90CF900C9461
:100A70005B0380917B00877F80937B0080E4809381
:100A80007C0080917A00806480937A0080917A0063
:100A900086FDFCCF80917800A0917900BA2FA82F15
:100AA00024E130E00E9416092FEF33E040E050E0EF
:100AB0000E949E0830936F0220936E0261E08CE0EA
:100AC0000E94FB0480E292E00E94A90361E087E0BB
:100AD0000E94FB048CE092E00E94A90380916E02C8
:100AE00090916F020E94100561E08EE00E94FB046D
:100AF00082E192E00E94A90380916E0290916F02C0
:100B00000B9764F060E080E00E94FB0485E192E0D6
:100B10000E94A9030E94470381E0089580E00895A0
:100B20000F931F9360E087E00E94EA0183E090E06A
:100B30000197F1F761E087E00E94EA0183E290E02B
:100B40000197F1F760E087E00E94EA01EEE7F1E04B
:100B50006491E8E3F1E0E491F0E0EE0FFF1FE85E5E
:100B6000FE4F8591949100E412E42FE030E0462F8F
:100B70000E947306611571058105910529F06F5F6B
:100B80007F4F8F4F9F4F9F70CB016AE370E00E94B1
:100B9000F9089B01072E000C440B550B77FD44C050
:100BA0002450310941095109AFE0B0E00E94BD086D
:100BB0002CE232E040E050E00E949E0830936D024B
:100BC00020936C0261E082E00E94FB0480E292E0EC
:100BD0000E94A90361E080E00E94FB048FE092E0A4
:100BE0000E94A90380916C0290916D020E941005F1
:100BF00061E084E00E94FB0483E292E00E94A9038A
:100C000080916C0290916D020A970CF560E080E093
:100C10000E94FB0486E292E00E94A9030E9447031F
:100C200081E01F910F910895235D3D4F4F4F5F4F1E
:100C3000AEE0B0E00E94BD0826E232E040E050E0C5
:100C40000E949E08205F3F4F4F4F5F4FB7CF80E01D
:100C5000E8CF1F920F920FB60F9211242F933F935C
:100C60008F939F93AF93BF93809171029091720283
:100C7000A0917302B09174023091700223E0230FAF
:100C80002D3758F50196A11DB11D20937002809358
:100C9000710290937202A0937302B09374028091D8
:100CA000750290917602A0917702B0917802019638
:100CB000A11DB11D8093750290937602A0937702D7
:100CC000B0937802BF91AF919F918F913F912F91F7
:100CD0000F900FBE0F901F90189526E8230F0296D5
:100CE000A11DB11DD2CFCF92DF92EF92FF920F9351
:100CF0001F93E82FF92F05C001501109210931096F
:100D000061F1908196239417B9F305C00150110940
:100D10002109310911F1908196239413F7CFC12C49
:100D2000D12CE12CF12C0AC08FEFC81AD80AE80A9E
:100D3000F80A0C151D052E053F0579F080818623E4
:100D4000841791F36C2D7D2D8E2D9F2D1F910F916A
:100D5000FF90EF90DF90CF90089560E070E080E02A
:100D600090E01F910F91FF90EF90DF90CF9008954A
:100D7000789484B5826084BD84B5816084BD85B576
:100D8000826085BD85B5816085BD80916E00816082
:100D900080936E0010928100809181008260809328
:100DA000810080918100816080938100809180002A
:100DB0008160809380008091B10084608093B10055
:100DC0008091B00081608093B0008091910082603A
:100DD0008093910080919100816080939100809137
:100DE00090008160809390008091A1008260809348
:100DF000A1008091A10081608093A1008091A0005A
:100E000081608093A0008091210182608093210104
:100E10008091210181608093210180912001816076
:100E20008093200180917A00846080937A00809181
:100E30007A00826080937A0080917A00816080934A
:100E40007A0080917A00806880937A001092C100C5
:100E500061E08DE00E94180261E08CE00E941802BF
:100E600061E08BE00E94180261E08AE00E941802B3
:100E700060E089E00E94180260E088E00E941802A9
:100E800082E00E945A040E94520460E084E00E94C2
:100E9000FB0485E392E00E94A9030E941E034B011C
:100EA0005C0184E6C82ED12CE12CF12C0E941E039B
:100EB000681979098A099B09683E73408105910583
:100EC000A8F321E0C21AD108E108F10888EE880EE3
:100ED00083E0981EA11CB11CC114D104E104F104EB
:100EE00029F761E087E00E94180260E086E00E9436
:100EF000180260E086E30E941802C0E0D0E00E9481
:100F000090058111F7C00E9439058111F3C089E075
:100F10000E94C101892BE1F588E00E94C1017C019A
:100F200081E0E816F104A1F56FEF70E08DE00E941A
:100F300049026FEF70E08CE00E94490264E670E0C5
:100F40008BE00E94490264E670E08AE00E94490258
:100F5000F0927A02E092790260E080E00E94FB0465
:100F60008DE392E00E94A9030E94900581110EC0BA
:100F70000E94390581110AC089E00E94C101892BB4
:100F800029F488E00E94C101019771F30E94520484
:100F900089E00E94C1017C010197C9F588E00E94A7
:100FA000C101892BA1F564E670E08DE00E94490241
:100FB00064E670E08CE00E9449026FEF70E08BE025
:100FC0000E9449026FEF70E08AE00E944902F092AD
:100FD0007A02E092790260E080E00E94FB048BE4F8
:100FE00092E00E94A9030E94900581110EC00E9408
:100FF000390581110AC089E00E94C101019729F4D5
:1010000088E00E94C101892B71F30E94520489E09B
:101010000E94C1010197E1F588E00E94C1017C01B5
:1010200081E0E816F104A1F56FEF70E08DE00E9419
:1010300049026FEF70E08CE00E9449026FEF70E0B0
:101040008BE00E9449026FEF70E08AE00E94490243
:10105000F0927A02E092790260E080E00E94FB0464
:1010600088E592E00E94A9030E94900581110EC0BC
:101070000E94390581110AC089E00E94C1010197CF
:1010800029F488E00E94C101019771F30E94520483
:101090000E94900581112EC089E00E94C101892B18
:1010A00049F588E00E94C101892B21F580917902E0
:1010B00090917A020197F1F40E94470360E080E08A
:1010C0000E94FB0488E692E00E94A9030E9490051A
:1010D00081110EC00E94390581110AC089E00E9469
:1010E000C101892B29F488E00E94C101892B71F389
:1010F0000E945204209709F402CF0E940000FFCE04
:10110000EBE7F2E01382128284E092E09183808325
:101110008EE084838FEF85838FE0868380E18783F1
:1011200081E1808782E1818783E18287138614864B
:1011300015861686178681E00C945A04052E97FBB7
:101140001EF400940E94B50857FD07D00E94C808FD
:1011500007FC03D04EF40C94B5085095409530959B
:1011600021953F4F4F4F5F4F089590958095709513
:1011700061957F4F8F4F9F4F08950E94EA08A59F6A
:10118000900DB49F900DA49F800D911D1124089582
:10119000A1E21A2EAA1BBB1BFD010DC0AA1FBB1F7B
:1011A000EE1FFF1FA217B307E407F50720F0A21BED
:1011B000B30BE40BF50B661F771F881F991F1A945A
:1011C00069F760957095809590959B01AC01BD0184
:1011D000CF010895A29FB001B39FC001A39F700DDE
:1011E000811D1124911DB29F700D811D1124911D2F
:1011F000089597FB072E16F4009407D077FD09D0C9
:101200000E941D0907FC05D03EF4909581959F4FE3
:101210000895709561957F4F0895EE0FFF1F00248C
:10122000001C0BBE0790F691E02D09940E94EA087D
:10123000B7FF0895821B930B0895AA1BBB1B51E1B6
:1012400007C0AA1FBB1FA617B70710F0A61BB70B36
:10125000881F991F5A95A9F780959095BC01CD01DB
:061260000895F894FFCF91
:10126600000000000A052F01440343034C4F41448C
:101276003A004B47004F564552204C4F41442020E0
:10128600202000434D004F42535452554354454489
:10129600202020200057454C434F4D4500545552C1
:1012A6004E494E47205249474854005455524E49DC
:1012B6004E47204C454654004D4F56494E47205305
:0C12C6005452414947485400454E440032
:00000001FF
